11001-Good-Record-44444Muffler       A-101231BP456xxxxxCM 003CHRTownCxxxxx2015xxxxxxxxxxxxxx23456xxxxxSSubContractor  005332010010111234 West Main Order Dept.                   Any Town       AL35994xxxxx21234 West Main Sched Dept.    Attn: Mary     Any Town       AL35994xxxxx31234 West Main Remit Dept.    Attn: Bob      Any Town       AL35994xxxxx000001TUR00000010000022952020072520200910000002TUR00000020000015482020072620200903000003TUR00000010001023452020072820201012
11002-Good-Record-44444Muffler       A-101231BP456xxxxxCM 003CHRTownCxxxxx2015xxxxxxxxxxxxxx23456xxxxxSSubContractor  005332010010111234 West Main Order Dept.                   Any Town       AL35994xxxxx21234 West Main Sched Dept.    Attn: Mary     Any Town       AL35994xxxxx31234 West Main Remit Dept.    Attn: Bob      Any Town       AL35994xxxxx000001TUR00000010000022952020072520200910000002TUR00000020000015482020072620200903000003TUR00000010001023452020072820201012
11003-Good-Record-44444Muffler       A-101231BP456xxxxxCM 003CHRTownCxxxxx2015xxxxxxxxxxxxxx23456xxxxxSSubContractor  005332010010111234 West Main Order Dept.                   Any Town       AL35994xxxxx21234 West Main Sched Dept.    Attn: Mary     Any Town       AL35994xxxxx31234 West Main Remit Dept.    Attn: Bob      Any Town       AL35994xxxxx000001TUR00000010000022952020072520200910000002TUR00000020000015482020072620200903000003TUR00000010001023452020072820201012
11004-Good-Record-44444Muffler       A-101231BP456xxxxxCM 003CHRTownCxxxxx2015xxxxxxxxxxxxxx23456xxxxxSSubContractor  005332010010111234 West Main Order Dept.                   Any Town       AL35994xxxxx21234 West Main Sched Dept.    Attn: Mary     Any Town       AL35994xxxxx31234 West Main Remit Dept.    Attn: Bob      Any Town       AL35994xxxxx000001TUR00000010000022952020072520200910000002TUR00000020000015482020072620200903000003TUR00000010001023452020072820201012
11005-Good-Record-44444Muffler       A-101231BP456xxxxxCM 003CHRTownCxxxxx2015xxxxxxxxxxxxxx23456xxxxxSSubContractor  005332010010111234 West Main Order Dept.                   Any Town       AL35994xxxxx21234 West Main Sched Dept.    Attn: Mary     Any Town       AL35994xxxxx31234 West Main Remit Dept.    Attn: Bob      Any Town       AL35994xxxxx000001TUR00000010000022952020072520200910000002TUR00000020000015482020072620200903000003TUR00000010001023452020072820201012
11006-Good-Record-44444Muffler       A-101231BP456xxxxxCM 003CHRTownCxxxxx2015xxxxxxxxxxxxxx23456xxxxxSSubContractor  005332010010111234 West Main Order Dept.                   Any Town       AL35994xxxxx21234 West Main Sched Dept.    Attn: Mary     Any Town       AL35994xxxxx31234 West Main Remit Dept.    Attn: Bob      Any Town       AL35994xxxxx000001TUR00000010000022952020072520200910000002TUR00000020000015482020072620200903000003TUR00000010001023452020072820201012
11007-Good-Record-44444Muffler       A-101231BP456xxxxxCM 003CHRTownCxxxxx2015xxxxxxxxxxxxxx23456xxxxxSSubContractor  005332010010111234 West Main Order Dept.                   Any Town       AL35994xxxxx21234 West Main Sched Dept.    Attn: Mary     Any Town       AL35994xxxxx31234 West Main Remit Dept.    Attn: Bob      Any Town       AL35994xxxxx000001TUR00000010000022952020072520200910000002TUR00000020000015482020072620200903000003TUR00000010001023452020072820201012
11008-Good-Record-44444Muffler       A-101231BP456xxxxxCM 003CHRTownCxxxxx2015xxxxxxxxxxxxxx23456xxxxxSSubContractor  005332010010111234 West Main Order Dept.                   Any Town       AL35994xxxxx21234 West Main Sched Dept.    Attn: Mary     Any Town       AL35994xxxxx31234 West Main Remit Dept.    Attn: Bob      Any Town       AL35994xxxxx000001TUR00000010000022952020072520200910000002TUR00000020000015482020072620200903000003TUR00000010001023452020072820201012
11009-Good-Record-44444Muffler       A-101231BP456xxxxxCM 003CHRTownCxxxxx2015xxxxxxxxxxxxxx23456xxxxxSSubContractor  005332010010111234 West Main Order Dept.                   Any Town       AL35994xxxxx21234 West Main Sched Dept.    Attn: Mary     Any Town       AL35994xxxxx31234 West Main Remit Dept.    Attn: Bob      Any Town       AL35994xxxxx000001TUR00000010000022952020072520200910000002TUR00000020000015482020072620200903000003TUR00000010001023452020072820201012
11010-Good-Record-44444Muffler       A-101231BP456xxxxxCM 003CHRTownCxxxxx2015xxxxxxxxxxxxxx23456xxxxxSSubContractor  005332010010111234 West Main Order Dept.                   Any Town       AL35994xxxxx21234 West Main Sched Dept.    Attn: Mary     Any Town       AL35994xxxxx31234 West Main Remit Dept.    Attn: Bob      Any Town       AL35994xxxxx000001TUR00000010000022952020072520200910000002TUR00000020000015482020072620200903000003TUR00000010001023452020072820201012
                       No Part#      A-101231BP456xxxxxCM 003CHRTownCxxxxx2015xxxxxxxxxxxxxx23456xxxxxSSubContractor  005332010010111234 West Main Order Dept.                   Any Town       AL35994xxxxx21234 West Main Sched Dept.    Attn: Mary     Any Town       AL35994xxxxx31234 West Main Remit Dept.    Attn: Bob      Any Town       AL35994xxxxx000001TUR00000010000022952020072520200910000002TUR00000020000015482020072620200903000003TUR00000010001023452020072820201012
11111-No Part-Name-5555              A-101231BP458xxxxxCM 003GM GMC  xxxxx2015xxxxxxxxxxxxxx23456xxxxxSSubContractor  005332010010111234 West Main Order Dept.                   Any Town       AL35994xxxxx21234 West Main Sched Dept.    Attn: Mary     Any Town       AL35994xxxxx31234 West Main Remit Dept.    Attn: Bob      Any Town       AL35994xxxxx000001TUR00000010000022952020072520200910000002TUR00000020000015482020072620200903000003TUR00000010001023452020072820201012
11111-No Make    -66666Muffler       A-101231BP459xxxxxCM 003   TourBxxxxx2015xxxxxxxxxxxxxx23456xxxxxSSubContractor  005332010010111234 West Main Order Dept.                   Any Town       AL35994xxxxx21234 West Main Sched Dept.    Attn: Mary     Any Town       AL35994xxxxx31234 West Main Remit Dept.    Attn: Bob      Any Town       AL35994xxxxx000001TUR00000010000022952020072520200910000002TUR00000020000015482020072620200903000003TUR00000010001023452020072820201012
11111-No Model   -55555Muffler       A-101231BP456xxxxxCM 003CHR          2015xxxxxxxxxxxxxx23456xxxxxSSubContractor  005332010010111234 West Main Order Dept.                   Any Town       AL35994xxxxx21234 West Main Sched Dept.    Attn: Mary     Any Town       AL35994xxxxx31234 West Main Remit Dept.    Attn: Bob      Any Town       AL35994xxxxx000001TUR00000010000022952020072520200910000002TUR00000020000015482020072620200903000003TUR00000010001023452020072820201012
11111-No Year    -66666Muffler       A-101231BP458xxxxxCM 003GM GMC  xxxxx    xxxxxxxxxxxxxx23456xxxxxSSubContractor  005332010010111234 West Main Order Dept.                   Any Town       AL35994xxxxx21234 West Main Sched Dept.    Attn: Mary     Any Town       AL35994xxxxx31234 West Main Remit Dept.    Attn: Bob      Any Town       AL35994xxxxx000001TUR00000010000022952020072520200910000002TUR00000020000015482020072620200903000003TUR00000010001023452020072820201012
11111-Wrong Make -66666Muffler       A-101231BP459xxxxxCM 003HONTourExxxxx2015xxxxxxxxxxxxxx23456xxxxxSSubContractor  005332010010111234 West Main Order Dept.                   Any Town       AL35994xxxxx21234 West Main Sched Dept.    Attn: Mary     Any Town       AL35994xxxxx31234 West Main Remit Dept.    Attn: Bob      Any Town       AL35994xxxxx000001TUR00000010000022952020072520200910000002TUR00000020000015482020072620200903000003TUR00000010001023452020072820201012
11111-Low Year   -55555Muffler       A-101231BP456xxxxxCM 003CHRTownCxxxxx1989xxxxxxxxxxxxxx23456xxxxxSSubContractor  005332010010111234 West Main Order Dept.                   Any Town       AL35994xxxxx21234 West Main Sched Dept.    Attn: Mary     Any Town       AL35994xxxxx31234 West Main Remit Dept.    Attn: Bob      Any Town       AL35994xxxxx000001TUR00000010000022952020072520200910000002TUR00000020000015482020072620200903000003TUR00000010001023452020072820201012
11111-High Year  -55555Muffler       A-101231BP456xxxxxCM 003CHRTownCxxxxx2025xxxxxxxxxxxxxx23456xxxxxSSubContractor  005332010010111234 West Main Order Dept.                   Any Town       AL35994xxxxx21234 West Main Sched Dept.    Attn: Mary     Any Town       AL35994xxxxx31234 West Main Remit Dept.    Attn: Bob      Any Town       AL35994xxxxx000001TUR00000010000022952020072520200910000002TUR00000020000015482020072620200903000003TUR00000010001023452020072820201012
11111-Weeks Zero -55555Muffler       A-101231BP458xxxxxCM 000GM GMC  xxxxx2015xxxxxxxxxxxxxx23456xxxxxSSubContractor  005332010010111234 West Main Order Dept.                   Any Town       AL35994xxxxx21234 West Main Sched Dept.    Attn: Mary     Any Town       AL35994xxxxx31234 West Main Remit Dept.    Attn: Bob      Any Town       AL35994xxxxx000001TUR00000010000022952020072520200910000002TUR00000020000015482020072620200903000003TUR00000010001023452020072820201012
11111-Weeks Blank-55555Muffler       A-101231BP458xxxxxCM    GM GMC  xxxxx2015xxxxxxxxxxxxxx23456xxxxxSSubContractor  005332010010111234 West Main Order Dept.                   Any Town       AL35994xxxxx21234 West Main Sched Dept.    Attn: Mary     Any Town       AL35994xxxxx31234 West Main Remit Dept.    Attn: Bob      Any Town       AL35994xxxxx000001TUR00000010000022952020072520200910000002TUR00000020000015482020072620200903000003TUR00000010001023452020072820201012
11111-Weeks 5   3-55555Muffler       A-101231BP458xxxxxCM 005GM GMC  xxxxx2015xxxxxxxxxxxxxx23456xxxxxSSubContractor  005332010010111234 West Main Order Dept.                   Any Town       AL35994xxxxx21234 West Main Sched Dept.    Attn: Mary     Any Town       AL35994xxxxx31234 West Main Remit Dept.    Attn: Bob      Any Town       AL35994xxxxx000001TUR00000010000022952020072520200910000002TUR00000020000015482020072620200903000003TUR00000010001023452020072820201012
11101-Good-Record-44444Muffler       A-101231BP456xxxxxCM 003CHRTownCxxxxx2015xxxxxxxxxxxxxx23456xxxxxSSubContractor  005332010010111234 West Main Order Dept.                   Any Town       AL35994xxxxx21234 West Main Sched Dept.    Attn: Mary     Any Town       AL35994xxxxx31234 West Main Remit Dept.    Attn: Bob      Any Town       AL35994xxxxx000001TUR00000010000022952020072520200910000002TUR00000020000015482020072620200903000003TUR00000010001023452020072820201012
12102-Good-Record-44444Muffler       A-101231BP456xxxxxCM 003CHRTownCxxxxx2015xxxxxxxxxxxxxx36981xxxxxDDistributor    004212015050711234 West Main Order Dept.                   Any Town       AL35994xxxxx21234 West Main Sched Dept.    Attn: Mary     Any Town       AL35994xxxxx31234 West Main Remit Dept.    Attn: Bob      Any Town       AL35994xxxxx000001TUR00000010000022952020072520200910000002TUR00000020000015482020072620200903000003TUR00000010001023452020072820201012
13103-Good-Record-44444Muffler       A-101231BP456xxxxxCM 003CHRTownCxxxxx2015xxxxxxxxxxxxxx78912xxxxxMManufacturer   003112018060711234 West Main Order Dept.                   Any Town       AL35994xxxxx21234 West Main Sched Dept.    Attn: Mary     Any Town       AL35994xxxxx31234 West Main Remit Dept.    Attn: Bob      Any Town       AL35994xxxxx000001TUR00000010000022952020072520200910000002TUR00000020000015482020072620200903000003TUR00000010001023452020072820201012
14104-Good-Record-44444Muffler       A-101231BP456xxxxxCM 003CHRTownCxxxxx2015xxxxxxxxxxxxxx78912xxxxxIImporter       003112018060711234 West Main Order Dept.                   Any Town       AL35994xxxxx21234 West Main Sched Dept.    Attn: Mary     Any Town       AL35994xxxxx31234 West Main Remit Dept.    Attn: Bob      Any Town       AL35994xxxxx000001TUR00000010000022952020072520200910000002TUR00000020000015482020072620200903000003TUR00000010001023452020072820201012
11111-No Supp Code 5555Muffler       A-101231BP456xxxxxCM 003CHRTownCxxxxx2015xxxxxxxxxxxxxx          SSubContractor  005332010010111234 West Main Order Dept.                   Any Town       AL35994xxxxx21234 West Main Sched Dept.    Attn: Mary     Any Town       AL35994xxxxx31234 West Main Remit Dept.    Attn: Bob      Any Town       AL35994xxxxx000001TUR00000010000022952020072520200910000002TUR00000020000015482020072620200903000003TUR00000010001023452020072820201012
11111-No Supp Type 6666Muffler       A-101231BP456xxxxxCM 003CHRTownCxxxxx2015xxxxxxxxxxxxxx36981xxxxx Distributor    004212015050711234 West Main Order Dept.                   Any Town       AL35994xxxxx21234 West Main Sched Dept.    Attn: Mary     Any Town       AL35994xxxxx31234 West Main Remit Dept.    Attn: Bob      Any Town       AL35994xxxxx000001TUR00000010000022952020072520200910000002TUR00000020000015482020072620200903000003TUR00000010001023452020072820201012
11111-Blank Perf -55555Muffler       A-101231BP456xxxxxCM 003CHRTownCxxxxx2015xxxxxxxxxxxxxx78912xxxxxMManufacturer      112018060711234 West Main Order Dept.                   Any Town       AL35994xxxxx21234 West Main Sched Dept.    Attn: Mary     Any Town       AL35994xxxxx31234 West Main Remit Dept.    Attn: Bob      Any Town       AL35994xxxxx000001TUR00000010000022952020072520200910000002TUR00000020000015482020072620200903000003TUR00000010001023452020072820201012
11111-Zero Perf  -55555Muffler       A-101231BP456xxxxxCM 003CHRTownCxxxxx2015xxxxxxxxxxxxxx23456xxxxxSSubContractor  000332010010111234 West Main Order Dept.                   Any Town       AL35994xxxxx21234 West Main Sched Dept.    Attn: Mary     Any Town       AL35994xxxxx31234 West Main Remit Dept.    Attn: Bob      Any Town       AL35994xxxxx000001TUR00000010000022952020072520200910000002TUR00000020000015482020072620200903000003TUR00000010001023452020072820201012
11111-Wrong Type -66666Muffler       A-101231BP456xxxxxCM 003CHRTownCxxxxx2015xxxxxxxxxxxxxx36981xxxxxADistributor    004212015050711234 West Main Order Dept.                   Any Town       AL35994xxxxx21234 West Main Sched Dept.    Attn: Mary     Any Town       AL35994xxxxx31234 West Main Remit Dept.    Attn: Bob      Any Town       AL35994xxxxx000001TUR00000010000022952020072520200910000002TUR00000020000015482020072620200903000003TUR00000010001023452020072820201012
11111-Wrong Rating 5555Muffler       A-101231BP456xxxxxCM 003CHRTownCxxxxx2015xxxxxxxxxxxxxx78912xxxxxMManufacturer   003612018060711234 West Main Order Dept.                   Any Town       AL35994xxxxx21234 West Main Sched Dept.    Attn: Mary     Any Town       AL35994xxxxx31234 West Main Remit Dept.    Attn: Bob      Any Town       AL35994xxxxx000001TUR00000010000022952020072520200910000002TUR00000020000015482020072620200903000003TUR00000010001023452020072820201012
11111-Wrong Status 5555Muffler       A-101231BP456xxxxxCM 003CHRTownCxxxxx2015xxxxxxxxxxxxxx23456xxxxxSSubContractor  005392010010111234 West Main Order Dept.                   Any Town       AL35994xxxxx21234 West Main Sched Dept.    Attn: Mary     Any Town       AL35994xxxxx31234 West Main Remit Dept.    Attn: Bob      Any Town       AL35994xxxxx000001TUR00000010000022952020072520200910000002TUR00000020000015482020072620200903000003TUR00000010001023452020072820201012
11111-Blank Date -55555Muffler       A-101231BP456xxxxxCM 003CHRTownCxxxxx2015xxxxxxxxxxxxxx36981xxxxxDDistributor    00421        11234 West Main Order Dept.                   Any Town       AL35994xxxxx21234 West Main Sched Dept.    Attn: Mary     Any Town       AL35994xxxxx31234 West Main Remit Dept.    Attn: Bob      Any Town       AL35994xxxxx000001TUR00000010000022952020072520200910000002TUR00000020000015482020072620200903000003TUR00000010001023452020072820201012
11111-Bad Date   -55555Muffler       A-101231BP456xxxxxCM 003CHRTownCxxxxx2015xxxxxxxxxxxxxx78912xxxxxMManufacturer   003112018063211234 West Main Order Dept.                   Any Town       AL35994xxxxx21234 West Main Sched Dept.    Attn: Mary     Any Town       AL35994xxxxx31234 West Main Remit Dept.    Attn: Bob      Any Town       AL35994xxxxx000001TUR00000010000022952020072520200910000002TUR00000020000015482020072620200903000003TUR00000010001023452020072820201012
11111-Blank Addr1 55555Muffler       A-101231BP456xxxxxCM 003CHRTownCxxxxx2015xxxxxxxxxxxxxx23456xxxxxSSubContractor  00533201001011               Order Dept.                   Any Town       AL35994xxxxx21234 West Main Sched Dept.    Attn: Mary     Any Town       AL35994xxxxx31234 West Main Remit Dept.    Attn: Bob      Any Town       AL35994xxxxx000001TUR00000010000022952020072520200910000002TUR00000020000015482020072620200903000003TUR00000010001023452020072820201012
11111-Blank City1 55555Muffler       A-101231BP456xxxxxCM 003CHRTownCxxxxx2015xxxxxxxxxxxxxx23456xxxxxSSubContractor  005332010010111234 West Main Sched Dept.    Attn: Mary                    AL35994xxxxx21234 West Main Sched Dept.    Attn: Mary     Any Town       AL35994xxxxx31234 West Main Remit Dept.    Attn: Bob      Any Town       AL35994xxxxx000001TUR00000010000022952020072520200910000002TUR00000020000015482020072620200903000003TUR00000010001023452020072820201012
11111-Blank State1 5555Muffler       A-101231BP456xxxxxCM 003CHRTownCxxxxx2015xxxxxxxxxxxxxx23456xxxxxSSubContractor  005332010010111234 West Main Remit Dept.    Attn: Bob      Any Town         35994xxxxx21234 West Main Sched Dept.    Attn: Mary     Any Town       AL35994xxxxx31234 West Main Remit Dept.    Attn: Bob      Any Town       AL35994xxxxx000001TUR00000010000022952020072520200910000002TUR00000020000015482020072620200903000003TUR00000010001023452020072820201012
11111-Blank Zip1  55555Muffler       A-101231BP456xxxxxCM 003CHRTownCxxxxx2015xxxxxxxxxxxxxx23456xxxxxSSubContractor  005332010010111234 West Main Order Dept.                   Any Town       AL          21234 West Main Sched Dept.    Attn: Mary     Any Town       AL35994xxxxx31234 West Main Remit Dept.    Attn: Bob      Any Town       AL35994xxxxx000001TUR00000010000022952020072520200910000002TUR00000020000015482020072620200903000003TUR00000010001023452020072820201012
11111-Blank Type1 55555Muffler       A-101231BP456xxxxxCM 003CHRTownCxxxxx2015xxxxxxxxxxxxxx23456xxxxxSSubContractor  0053320100101 1234 West Main Sched Dept.    Attn: Mary     Any Town       AL35994xxxxx21234 West Main Sched Dept.    Attn: Mary     Any Town       AL35994xxxxx31234 West Main Remit Dept.    Attn: Bob      Any Town       AL35994xxxxx000001TUR00000010000022952020072520200910000002TUR00000020000015482020072620200903000003TUR00000010001023452020072820201012
11111-Wrong Type1 55555Muffler       A-101231BP456xxxxxCM 003CHRTownCxxxxx2015xxxxxxxxxxxxxx23456xxxxxSSubContractor  005332010010151234 West Main Sched Dept.    Attn: Mary     Any Town       AL35994xxxxx21234 West Main Sched Dept.    Attn: Mary     Any Town       AL35994xxxxx31234 West Main Remit Dept.    Attn: Bob      Any Town       AL35994xxxxx000001TUR00000010000022952020072520200910000002TUR00000020000015482020072620200903000003TUR00000010001023452020072820201012
11111-Blank Addr2 55555Muffler       A-101231BP456xxxxxCM 003CHRTownCxxxxx2015xxxxxxxxxxxxxx23456xxxxxSSubContractor  005332010010111234 West Main Order Dept.                   Any Town       AL35994     2               Order Dept.                   Any Town       AL35994xxxxx31234 West Main Remit Dept.    Attn: Bob      Any Town       AL35994xxxxx000001TUR00000010000022952020072520200910000002TUR00000020000015482020072620200903000003TUR00000010001023452020072820201012
11111-Blank City2 55555Muffler       A-101231BP456xxxxxCM 003CHRTownCxxxxx2015xxxxxxxxxxxxxx23456xxxxxSSubContractor  005332010010111234 West Main Order Dept.                   Any Town       AL35994xxxxx21234 West Main Sched Dept.    Attn: Mary                    AL35994xxxxx31234 West Main Remit Dept.    Attn: Bob      Any Town       AL35994xxxxx000001TUR00000010000022952020072520200910000002TUR00000020000015482020072620200903000003TUR00000010001023452020072820201012
11111-Blank State2 5555Muffler       A-101231BP456xxxxxCM 003CHRTownCxxxxx2015xxxxxxxxxxxxxx23456xxxxxSSubContractor  005332010010111234 West Main Order Dept.                   Any Town       AL35994xxxxx21234 West Main Remit Dept.    Attn: Bob      Any Town         02791xxxxx31234 West Main Remit Dept.    Attn: Bob      Any Town       AL35994xxxxx000001TUR00000010000022952020072520200910000002TUR00000020000015482020072620200903000003TUR00000010001023452020072820201012
11111-Blank Zip2  55555Muffler       A-101231BP456xxxxxCM 003CHRTownCxxxxx2015xxxxxxxxxxxxxx23456xxxxxSSubContractor  005332010010111234 West Main Order Dept.                   Any Town       AL35994xxxxx21234 West Main Order Dept.                   Any Town       MA          31234 West Main Remit Dept.    Attn: Bob      Any Town       AL35994xxxxx000001TUR00000010000022952020072520200910000002TUR00000020000015482020072620200903000003TUR00000010001023452020072820201012
11111-Blank Type2 55555Muffler       A-101231BP456xxxxxCM 003CHRTownCxxxxx2015xxxxxxxxxxxxxx23456xxxxxSSubContractor  005332010010111234 West Main Order Dept.                   Any Town       AL35994xxxxx 1234 West Main Sched Dept.    Attn: Mary     Any Town       AL35994xxxxx31234 West Main Remit Dept.    Attn: Bob      Any Town       AL35994xxxxx000001TUR00000010000022952020072520200910000002TUR00000020000015482020072620200903000003TUR00000010001023452020072820201012
11111-Wrong Type2 55555Muffler       A-101231BP456xxxxxCM 003CHRTownCxxxxx2015xxxxxxxxxxxxxx23456xxxxxSSubContractor  005332010010111234 West Main Order Dept.                   Any Town       AL35994xxxxx51234 West Main Sched Dept.    Attn: Mary     Any Town       AL35994xxxxx31234 West Main Remit Dept.    Attn: Bob      Any Town       AL35994xxxxx000001TUR00000010000022952020072520200910000002TUR00000020000015482020072620200903000003TUR00000010001023452020072820201012
11111-Blank Addr3 55555Muffler       A-101231BP456xxxxxCM 003CHRTownCxxxxx2015xxxxxxxxxxxxxx23456xxxxxSSubContractor  005332010010111234 West Main Order Dept.                   Any Town       AL35994xxxxx21234 West Main Sched Dept.    Attn: Mary     Any Town       AL35994xxxxx3               Order Dept.                   Any Town       AL35994xxxxx000001TUR00000010000022952020072520200910000002TUR00000020000015482020072620200903000003TUR00000010001023452020072820201012
11111-Blank City3 55555Muffler       A-101231BP456xxxxxCM 003CHRTownCxxxxx2015xxxxxxxxxxxxxx23456xxxxxSSubContractor  005332010010111234 West Main Order Dept.                   Any Town       AL35994xxxxx21234 West Main Sched Dept.    Attn: Mary     Any Town       AL35994xxxxx31234 West Main Sched Dept.    Attn: Mary                    AL35994xxxxx000001TUR00000010000022952020072520200910000002TUR00000020000015482020072620200903000003TUR00000010001023452020072820201012
11111-Blank State3 5555Muffler       A-101231BP456xxxxxCM 003CHRTownCxxxxx2015xxxxxxxxxxxxxx23456xxxxxSSubContractor  005332010010111234 West Main Order Dept.                   Any Town       AL35994xxxxx21234 West Main Sched Dept.    Attn: Mary     Any Town       AL35994xxxxx31234 West Main Remit Dept.    Attn: Bob      Any Town         02791xxxxx000001TUR00000010000022952020072520200910000002TUR00000020000015482020072620200903000003TUR00000010001023452020072820201012
11111-Blank Zip3  55555Muffler       A-101231BP456xxxxxCM 003CHRTownCxxxxx2015xxxxxxxxxxxxxx23456xxxxxSSubContractor  005332010010111234 West Main Order Dept.                   Any Town       AL35994xxxxx21234 West Main Sched Dept.    Attn: Mary     Any Town       AL35994xxxxx31234 West Main Order Dept.                   Any Town       MA          000001TUR00000010000022952020072520200910000002TUR00000020000015482020072620200903000003TUR00000010001023452020072820201012
11111-Blank Type3 55555Muffler       A-101231BP456xxxxxCM 003CHRTownCxxxxx2015xxxxxxxxxxxxxx23456xxxxxSSubContractor  005332010010111234 West Main Order Dept.                   Any Town       AL35994xxxxx21234 West Main Sched Dept.    Attn: Mary     Any Town       AL35994xxxxx 1234 West Main Sched Dept.    Attn: Mary     Any Town       AL35994xxxxx000001TUR00000010000022952020072520200910000002TUR00000020000015482020072620200903000003TUR00000010001023452020072820201012
11111-Wrong Type3 55555Muffler       A-101231BP456xxxxxCM 003CHRTownCxxxxx2015xxxxxxxxxxxxxx23456xxxxxSSubContractor  005332010010111234 West Main Order Dept.                   Any Town       AL35994xxxxx21234 West Main Sched Dept.    Attn: Mary     Any Town       AL35994xxxxx51234 West Main Sched Dept.    Attn: Mary     Any Town       AL35994xxxxx000001TUR00000010000022952020072520200910000002TUR00000020000015482020072620200903000003TUR00000010001023452020072820201012
11201-Good-Record-44444Muffler       A-101231BP456xxxxxCM 003CHRTownCxxxxx2015xxxxxxxxxxxxxx23456xxxxxSSubContractor  005332010010111234 West Main Order Dept.                   Any Town       AL35994xxxxx21234 West Main Sched Dept.    Attn: Mary     Any Town       AL35994xxxxx31234 West Main Remit Dept.    Attn: Bob      Any Town       AL35994xxxxx000001TUR00000010000022952020072520200910000002TUR00000020000015482020072620200903000003TUR00000010001023452020072820201012
11202-Good-Record-44444Muffler       A-101231BP456xxxxxCM 003CHRTownCxxxxx2015xxxxxxxxxxxxxx23456xxxxxSSubContractor  005332010010111234 West Main Order Dept.                   Any Town       DC20025xxxxx21234 West Main Sched Dept.    Attn: Mary     Any Town       AL35994xxxxx31234 West Main Remit Dept.    Attn: Bob      Any Town       AL35994xxxxx000001TUR00000010000022952020072520200910000002TUR00000020000015482020072620200903000003TUR00000010001023452020072820201012
11203-Good-Record-44444Muffler       A-101231BP456xxxxxCM 003CHRTownCxxxxx2015xxxxxxxxxxxxxx23456xxxxxSSubContractor  005332010010111234 West Main Order Dept.                   Any Town       DC20545xxxxx21234 West Main Sched Dept.    Attn: Mary     Any Town       AL35994xxxxx31234 West Main Remit Dept.    Attn: Bob      Any Town       AL35994xxxxx000001TUR00000010000022952020072520200910000002TUR00000020000015482020072620200903000003TUR00000010001023452020072820201012
11204-Good-Record-44444Muffler       A-101231BP456xxxxxCM 003CHRTownCxxxxx2015xxxxxxxxxxxxxx23456xxxxxSSubContractor  005332010010111234 West Main Order Dept.                   Any Town       DC20799xxxxx21234 West Main Sched Dept.    Attn: Mary     Any Town       AL35994xxxxx31234 West Main Remit Dept.    Attn: Bob      Any Town       AL35994xxxxx000001TUR00000010000022952020072520200910000002TUR00000020000015482020072620200903000003TUR00000010001023452020072820201012
11205-Good-Record-44444Muffler       A-101231BP456xxxxxCM 003CHRTownCxxxxx2015xxxxxxxxxxxxxx23456xxxxxSSubContractor  005332010010111234 West Main Order Dept.                   Any Town       AL35994xxxxx21234 West Main Order Dept.                   Any Town       AL35994xxxxx31234 West Main Remit Dept.    Attn: Bob      Any Town       AL35994xxxxx000001TUR00000010000022952020072520200910000002TUR00000020000015482020072620200903000003TUR00000010001023452020072820201012
11206-Good-Record-44444Muffler       A-101231BP456xxxxxCM 003CHRTownCxxxxx2015xxxxxxxxxxxxxx23456xxxxxSSubContractor  005332010010111234 West Main Order Dept.                   Any Town       AL35994xxxxx21234 West Main Order Dept.                   Any Town       DC20025xxxxx31234 West Main Remit Dept.    Attn: Bob      Any Town       AL35994xxxxx000001TUR00000010000022952020072520200910000002TUR00000020000015482020072620200903000003TUR00000010001023452020072820201012
11207-Good-Record-44444Muffler       A-101231BP456xxxxxCM 003CHRTownCxxxxx2015xxxxxxxxxxxxxx23456xxxxxSSubContractor  005332010010111234 West Main Order Dept.                   Any Town       AL35994xxxxx21234 West Main Order Dept.                   Any Town       DC20545xxxxx31234 West Main Remit Dept.    Attn: Bob      Any Town       AL35994xxxxx000001TUR00000010000022952020072520200910000002TUR00000020000015482020072620200903000003TUR00000010001023452020072820201012
11208-Good-Record-44444Muffler       A-101231BP456xxxxxCM 003CHRTownCxxxxx2015xxxxxxxxxxxxxx23456xxxxxSSubContractor  005332010010111234 West Main Order Dept.                   Any Town       AL35994xxxxx21234 West Main Order Dept.                   Any Town       DC20799xxxxx31234 West Main Remit Dept.    Attn: Bob      Any Town       AL35994xxxxx000001TUR00000010000022952020072520200910000002TUR00000020000015482020072620200903000003TUR00000010001023452020072820201012
11209-Good-Record-44444Muffler       A-101231BP456xxxxxCM 003CHRTownCxxxxx2015xxxxxxxxxxxxxx23456xxxxxSSubContractor  005332010010111234 West Main Order Dept.                   Any Town       AL35994xxxxx21234 West Main Sched Dept.    Attn: Mary     Any Town       AL35994xxxxx31234 West Main Order Dept.                   Any Town       AL35994xxxxx000001TUR00000010000022952020072520200910000002TUR00000020000015482020072620200903000003TUR00000010001023452020072820201012
11210-Good-Record-44444Muffler       A-101231BP456xxxxxCM 003CHRTownCxxxxx2015xxxxxxxxxxxxxx23456xxxxxSSubContractor  005332010010111234 West Main Order Dept.                   Any Town       AL35994xxxxx21234 West Main Sched Dept.    Attn: Mary     Any Town       AL35994xxxxx31234 West Main Order Dept.                   Any Town       DC20025xxxxx000001TUR00000010000022952020072520200910000002TUR00000020000015482020072620200903000003TUR00000010001023452020072820201012
11211-Good-Record-44444Muffler       A-101231BP456xxxxxCM 003CHRTownCxxxxx2015xxxxxxxxxxxxxx23456xxxxxSSubContractor  005332010010111234 West Main Order Dept.                   Any Town       AL35994xxxxx21234 West Main Sched Dept.    Attn: Mary     Any Town       AL35994xxxxx31234 West Main Order Dept.                   Any Town       DC20545xxxxx000001TUR00000010000022952020072520200910000002TUR00000020000015482020072620200903000003TUR00000010001023452020072820201012
11212-Good-Record-44444Muffler       A-101231BP456xxxxxCM 003CHRTownCxxxxx2015xxxxxxxxxxxxxx23456xxxxxSSubContractor  005332010010111234 West Main Order Dept.                   Any Town       AL35994xxxxx21234 West Main Sched Dept.    Attn: Mary     Any Town       AL35994xxxxx31234 West Main Order Dept.                   Any Town       DC20799xxxxx000001TUR00000010000022952020072520200910000002TUR00000020000015482020072620200903000003TUR00000010001023452020072820201012
11111-1 SZip High 44444Muffler       A-101231BP456xxxxxCM 003CHRTownCxxxxx2015xxxxxxxxxxxxxx23456xxxxxSSubContractor  005332010010111234 West Main Order Dept.                   Any Town       AL36926xxxxx21234 West Main Sched Dept.    Attn: Mary     Any Town       AL35994xxxxx31234 West Main Order Dept.                   Any Town       DC20799xxxxx000001TUR00000010000022952020072520200910000002TUR00000020000015482020072620200903000003TUR00000010001023452020072820201012
11111-1 SZip Low  44444Muffler       A-101231BP456xxxxxCM 003CHRTownCxxxxx2015xxxxxxxxxxxxxx23456xxxxxSSubContractor  005332010010111234 West Main Order Dept.                   Any Town       AL35003xxxxx21234 West Main Sched Dept.    Attn: Mary     Any Town       AL35994xxxxx31234 West Main Order Dept.                   Any Town       DC20799xxxxx000001TUR00000010000022952020072520200910000002TUR00000020000015482020072620200903000003TUR00000010001023452020072820201012
11111-1 MZip Low  44444Muffler       A-101231BP456xxxxxCM 003CHRTownCxxxxx2015xxxxxxxxxxxxxx23456xxxxxSSubContractor  005332010010111234 West Main Order Dept.                   Any Town       DC20000xxxxx21234 West Main Sched Dept.    Attn: Mary     Any Town       AL35994xxxxx31234 West Main Order Dept.                   Any Town       DC20799xxxxx000001TUR00000010000022952020072520200910000002TUR00000020000015482020072620200903000003TUR00000010001023452020072820201012
11111-1 MZip High 44444Muffler       A-101231BP456xxxxxCM 003CHRTownCxxxxx2015xxxxxxxxxxxxxx23456xxxxxSSubContractor  005332010010111234 West Main Order Dept.                   Any Town       DC20040xxxxx21234 West Main Sched Dept.    Attn: Mary     Any Town       AL35994xxxxx31234 West Main Order Dept.                   Any Town       DC20799xxxxx000001TUR00000010000022952020072520200910000002TUR00000020000015482020072620200903000003TUR00000010001023452020072820201012
11111-1 MZip Low  44444Muffler       A-101231BP456xxxxxCM 003CHRTownCxxxxx2015xxxxxxxxxxxxxx23456xxxxxSSubContractor  005332010010111234 West Main Order Dept.                   Any Town       DC20041xxxxx21234 West Main Sched Dept.    Attn: Mary     Any Town       AL35994xxxxx31234 West Main Order Dept.                   Any Town       DC20799xxxxx000001TUR00000010000022952020072520200910000002TUR00000020000015482020072620200903000003TUR00000010001023452020072820201012
11111-1 MZip High 44444Muffler       A-101231BP456xxxxxCM 003CHRTownCxxxxx2015xxxxxxxxxxxxxx23456xxxxxSSubContractor  005332010010111234 West Main Order Dept.                   Any Town       DC20600xxxxx21234 West Main Sched Dept.    Attn: Mary     Any Town       AL35994xxxxx31234 West Main Order Dept.                   Any Town       DC20799xxxxx000001TUR00000010000022952020072520200910000002TUR00000020000015482020072620200903000003TUR00000010001023452020072820201012
11111-1 MZip Low  44444Muffler       A-101231BP456xxxxxCM 003CHRTownCxxxxx2015xxxxxxxxxxxxxx23456xxxxxSSubContractor  005332010010111234 West Main Order Dept.                   Any Town       DC20798xxxxx21234 West Main Sched Dept.    Attn: Mary     Any Town       AL35994xxxxx31234 West Main Order Dept.                   Any Town       DC20799xxxxx000001TUR00000010000022952020072520200910000002TUR00000020000015482020072620200903000003TUR00000010001023452020072820201012
11111-1 MZip High 44444Muffler       A-101231BP456xxxxxCM 003CHRTownCxxxxx2015xxxxxxxxxxxxxx23456xxxxxSSubContractor  005332010010111234 West Main Order Dept.                   Any Town       DC20800xxxxx21234 West Main Sched Dept.    Attn: Mary     Any Town       AL35994xxxxx31234 West Main Order Dept.                   Any Town       DC20799xxxxx000001TUR00000010000022952020072520200910000002TUR00000020000015482020072620200903000003TUR00000010001023452020072820201012
11111-1 PO# Blank 44444Muffler       A-101231BP456xxxxxCM 003CHRTownCxxxxx2015xxxxxxxxxxxxxx23456xxxxxSSubContractor  005332010010111234 West Main Order Dept.                   Any Town       AL35994xxxxx21234 West Main Sched Dept.    Attn: Mary     Any Town       AL35994xxxxx31234 West Main Remit Dept.    Attn: Bob      Any Town       AL35994xxxxx      TUR00000010001023452020072820201012000002TUR00000020000015482020072620200903000003TUR00000010001023452020072820201012
11111-1 Buy Blank 44444Muffler       A-101231BP456xxxxxCM 003CHRTownCxxxxx2015xxxxxxxxxxxxxx23456xxxxxSSubContractor  005332010010111234 West Main Order Dept.                   Any Town       AL35994xxxxx21234 West Main Sched Dept.    Attn: Mary     Any Town       AL35994xxxxx31234 West Main Remit Dept.    Attn: Bob      Any Town       AL35994xxxxx000131   00000010001023452020072820201012000002TUR00000020000015482020072620200903000003TUR00000010001023452020072820201012
11 Qty, ODate Blk 44444Muffler       A-101231BP456xxxxxCM 003CHRTownCxxxxx2015xxxxxxxxxxxxxx23456xxxxxSSubContractor  005332010010111234 West Main Order Dept.                   Any Town       AL35994xxxxx21234 West Main Sched Dept.    Attn: Mary     Any Town       AL35994xxxxx31234 West Main Remit Dept.    Attn: Bob      Any Town       AL35994xxxxx000123TUR0000000000002295        20200910000002TUR00000020000015482020072620200903000003TUR00000010001023452020072820201012
1111# and Qty Bad 44444Muffler       A-101231BP456xxxxxCM 003CHRTownCxxxxx2015xxxxxxxxxxxxxx23456xxxxxSSubContractor  005332010010111234 West Main Order Dept.                   Any Town       AL35994xxxxx21234 West Main Sched Dept.    Attn: Mary     Any Town       AL35994xxxxx31234 West Main Remit Dept.    Attn: Bob      Any Town       AL35994xxxxx      TUR00000000001023452020072820201012000002TUR00000020000015482020072620200903000003TUR00000010001023452020072820201012
1111Buy and Qty Bad 444Muffler       A-101231BP456xxxxxCM 003CHRTownCxxxxx2015xxxxxxxxxxxxxx23456xxxxxSSubContractor  005332010010111234 West Main Order Dept.                   Any Town       AL35994xxxxx21234 West Main Sched Dept.    Attn: Mary     Any Town       AL35994xxxxx31234 West Main Remit Dept.    Attn: Bob      Any Town       AL35994xxxxx000131   00000000001023452020072820201012000002TUR00000020000015482020072620200903000003TUR00000010001023452020072820201012
11111-1 ODate Blk 44444Muffler       A-101231BP456xxxxxCM 003CHRTownCxxxxx2015xxxxxxxxxxxxxx23456xxxxxSSubContractor  005332010010111234 West Main Order Dept.                   Any Town       AL35994xxxxx21234 West Main Sched Dept.    Attn: Mary     Any Town       AL35994xxxxx31234 West Main Remit Dept.    Attn: Bob      Any Town       AL35994xxxxx000123TUR0000001000002295        20200910000002TUR00000020000015482020072620200903000003TUR00000010001023452020072820201012
11111-1 ODate Bad 44444Muffler       A-101231BP456xxxxxCM 003CHRTownCxxxxx2015xxxxxxxxxxxxxx23456xxxxxSSubContractor  005332010010111234 West Main Order Dept.                   Any Town       AL35994xxxxx21234 West Main Sched Dept.    Attn: Mary     Any Town       AL35994xxxxx31234 West Main Remit Dept.    Attn: Bob      Any Town       AL35994xxxxx000123TUR00000010000022952020023020200910000002TUR00000020000015482020072620200903000003TUR00000010001023452020072820201012
11111-1 DDate Bad 44444Muffler       A-101231BP456xxxxxCM 003CHRTownCxxxxx2015xxxxxxxxxxxxxx23456xxxxxSSubContractor  005332010010111234 West Main Order Dept.                   Any Town       AL35994xxxxx21234 West Main Sched Dept.    Attn: Mary     Any Town       AL35994xxxxx31234 West Main Remit Dept.    Attn: Bob      Any Town       AL35994xxxxx000123TUR00000010000022952020021520200230000002TUR00000020000015482020072620200903000003TUR00000010001023452020072820201012
111 1 DDate < ODate 444Muffler       A-101231BP456xxxxxCM 003CHRTownCxxxxx2015xxxxxxxxxxxxxx23456xxxxxSSubContractor  005332010010111234 West Main Order Dept.                   Any Town       AL35994xxxxx21234 West Main Sched Dept.    Attn: Mary     Any Town       AL35994xxxxx31234 West Main Remit Dept.    Attn: Bob      Any Town       AL35994xxxxx000123TUR00000010000022952020072520200715000002TUR00000020000015482020072620200903000003TUR00000010001023452020072820200729
11111-2 ODate Blk 44444Muffler       A-101231BP456xxxxxCM 003CHRTownCxxxxx2015xxxxxxxxxxxxxx23456xxxxxSSubContractor  005332010010111234 West Main Order Dept.                   Any Town       AL35994xxxxx21234 West Main Sched Dept.    Attn: Mary     Any Town       AL35994xxxxx31234 West Main Remit Dept.    Attn: Bob      Any Town       AL35994xxxxx000001TUR00000010000022952020072520200910000154TUR0000000000000000        20200910000003TUR00000010001023452020072820201012
11111-2 ODate Bad 44444Muffler       A-101231BP456xxxxxCM 003CHRTownCxxxxx2015xxxxxxxxxxxxxx23456xxxxxSSubContractor  005332010010111234 West Main Order Dept.                   Any Town       AL35994xxxxx21234 West Main Sched Dept.    Attn: Mary     Any Town       AL35994xxxxx31234 West Main Remit Dept.    Attn: Bob      Any Town       AL35994xxxxx000001TUR00000010000022952020072520200910000154TUR00000000000000002020023120200910000003TUR00000010001023452020072820201012
11111-2 DDate Bad 44444Muffler       A-101231BP456xxxxxCM 003CHRTownCxxxxx2015xxxxxxxxxxxxxx23456xxxxxSSubContractor  005332010010111234 West Main Order Dept.                   Any Town       AL35994xxxxx21234 West Main Sched Dept.    Attn: Mary     Any Town       AL35994xxxxx31234 West Main Remit Dept.    Attn: Bob      Any Town       AL35994xxxxx000001TUR00000010000022952020072520200910000154TUR00000000000000002020072620200932000003TUR00000010001023452020072820201012
111 2 DDate < ODate 444Muffler       A-101231BP456xxxxxCM 003CHRTownCxxxxx2015xxxxxxxxxxxxxx23456xxxxxSSubContractor  005332010010111234 West Main Order Dept.                   Any Town       AL35994xxxxx21234 West Main Sched Dept.    Attn: Mary     Any Town       AL35994xxxxx31234 West Main Remit Dept.    Attn: Bob      Any Town       AL35994xxxxx000123TUR00000010000022952020072520200726000002TUR00000020000015482020072620200724000003TUR00000010001023452020072820200729
11111-3 ODate Blk 44444Muffler       A-101231BP456xxxxxCM 003CHRTownCxxxxx2015xxxxxxxxxxxxxx23456xxxxxSSubContractor  005332010010111234 West Main Order Dept.                   Any Town       AL35994xxxxx21234 West Main Sched Dept.    Attn: Mary     Any Town       AL35994xxxxx31234 West Main Remit Dept.    Attn: Bob      Any Town       AL35994xxxxx000001TUR00000010000022952020072520200910000154TUR00000000000000002020072620200910000003TUR0000001000102345        20201012
11111-3 ODate Bad 44444Muffler       A-101231BP456xxxxxCM 003CHRTownCxxxxx2015xxxxxxxxxxxxxx23456xxxxxSSubContractor  005332010010111234 West Main Order Dept.                   Any Town       AL35994xxxxx21234 West Main Sched Dept.    Attn: Mary     Any Town       AL35994xxxxx31234 West Main Remit Dept.    Attn: Bob      Any Town       AL35994xxxxx000001TUR00000010000022952020072520200910000154TUR00000000000000002020072620200910000003TUR00000010001023452020073220201012
11111-3 DDate Bad 44444Muffler       A-101231BP456xxxxxCM 003CHRTownCxxxxx2015xxxxxxxxxxxxxx23456xxxxxSSubContractor  005332010010111234 West Main Order Dept.                   Any Town       AL35994xxxxx21234 West Main Sched Dept.    Attn: Mary     Any Town       AL35994xxxxx31234 West Main Remit Dept.    Attn: Bob      Any Town       AL35994xxxxx000001TUR00000010000022952020072520200910000154TUR00000000000000002020072620200910000003TUR00000010001023452020072820201032
111 3 DDate < ODate 444Muffler       A-101231BP456xxxxxCM 003CHRTownCxxxxx2015xxxxxxxxxxxxxx23456xxxxxSSubContractor  005332010010111234 West Main Order Dept.                   Any Town       AL35994xxxxx21234 West Main Sched Dept.    Attn: Mary     Any Town       AL35994xxxxx31234 West Main Remit Dept.    Attn: Bob      Any Town       AL35994xxxxx000123TUR00000010000022952020072520200910000002TUR00000020000015482020072620200903000003TUR00000010001023452020072820200727
11111-2 Qty Blank 44444Muffler       A-101231BP456xxxxxCM 003CHRTownCxxxxx2015xxxxxxxxxxxxxx23456xxxxxSSubContractor  005332010010111234 West Main Order Dept.                   Any Town       AL35994xxxxx21234 West Main Sched Dept.    Attn: Mary     Any Town       AL35994xxxxx31234 West Main Remit Dept.    Attn: Bob      Any Town       AL35994xxxxx000001TUR00000010000022952020072520200910000154TUR       0000022952020072520200910000003TUR00000010001023452020072820201012
111Qty 0, $>0   3-44444Muffler       A-101231BP456xxxxxCM 003CHRTownCxxxxx2015xxxxxxxxxxxxxx23456xxxxxSSubContractor  005332010010111234 West Main Order Dept.                   Any Town       AL35994xxxxx21234 West Main Sched Dept.    Attn: Mary     Any Town       AL35994xxxxx31234 West Main Remit Dept.    Attn: Bob      Any Town       AL35994xxxxx000001TUR00000010000022952020072520200910000154TUR00000000000001002020072520200910000003TUR00000010001023452020072820201012
11007-Good-Record-44444Muffler       A-101231BP456xxxxxCM 003CHRTownCxxxxx2015xxxxxxxxxxxxxx23456xxxxxSSubContractor  005332010010111234 West Main Order Dept.                   Any Town       AL35994xxxxx21234 West Main Sched Dept.    Attn: Mary     Any Town       AL35994xxxxx31234 West Main Remit Dept.    Attn: Bob      Any Town       AL35994xxxxx000001TUR00000010000022952020072520200910000154TUR00000000000000002020072520200910000003TUR00000010001023452020072820201012
11008-Good-Record-44444Muffler       A-101231BP456xxxxxCM 003CHRTownCxxxxx2015xxxxxxxxxxxxxx23456xxxxxSSubContractor  005332010010111234 West Main Order Dept.                   Any Town       AL35994xxxxx21234 West Main Sched Dept.    Attn: Mary     Any Town       AL35994xxxxx31234 West Main Remit Dept.    Attn: Bob      Any Town       AL35994xxxxx000001TUR00000010000022952020072520200910000002TUR00000020000015482020072620200903000004TUR00000010000001002020072520200910
111Qty 0, $>0   2-44444Muffler       A-101231BP456xxxxxCM 003CHRTownCxxxxx2015xxxxxxxxxxxxxx23456xxxxxSSubContractor  005332010010111234 West Main Order Dept.                   Any Town       AL35994xxxxx21234 West Main Sched Dept.    Attn: Mary     Any Town       AL35994xxxxx31234 West Main Remit Dept.    Attn: Bob      Any Town       AL35994xxxxx000001TUR00000010000022952020072520200910000005TUR00000000001023452020072820201012000004TUR00000010000001002020072520200910
111Bad Price 1    44444Muffler       A-101231BP456xxxxxCM 003CHRTownCxxxxx2015xxxxxxxxxxxxxx23456xxxxxSSubContractor  005332010010111234 West Main Order Dept.                   Any Town       AL35994xxxxx21234 West Main Sched Dept.    Attn: Mary     Any Town       AL35994xxxxx31234 West Main Remit Dept.    Attn: Bob      Any Town       AL35994xxxxx000001TUR0000001         2020072520200910000005TUR00000000001023452020072820201012000004TUR00000010000001002020072520200910
111Bad Price 2    44444Muffler       A-101231BP456xxxxxCM 003CHRTownCxxxxx2015xxxxxxxxxxxxxx23456xxxxxSSubContractor  005332010010111234 West Main Order Dept.                   Any Town       AL35994xxxxx21234 West Main Sched Dept.    Attn: Mary     Any Town       AL35994xxxxx31234 West Main Remit Dept.    Attn: Bob      Any Town       AL35994xxxxx000001TUR00000010000022952020072520200910000005TUR0000001         2020072820201012000004TUR00000010000001002020072520200910
11111-Lots of Bad 44445Muffler       A-101231BP456xxxxxCM 003CHRTownCxxxxx    xxxxxxxxxxxxxx23456xxxxx1SubContractor  005332010010111234 West Main Order Dept.                   Any Town       AL35994xxxxx21234 West Main Sched Dept.    Attn: Mary     Any Town       AL35994xxxxx31234 West Main Remit Dept.    Attn: Bob      Any Town       AL35994xxxxx000131TUR00000000001023452020023120201012000002TUR00000020000015482020072620200903000003TUR00000010001023452020072820201012
